{
  "contractName": "HelloWorld",
  "abi": [
    {
      "constant": true,
      "inputs": [
        {
          "name": "",
          "type": "address"
        }
      ],
      "name": "authorizedSenders",
      "outputs": [
        {
          "name": "",
          "type": "bool"
        }
      ],
      "payable": false,
      "stateMutability": "view",
      "type": "function",
      "signature": "0x6f324967"
    },
    {
      "constant": true,
      "inputs": [],
      "name": "owner",
      "outputs": [
        {
          "name": "",
          "type": "address"
        }
      ],
      "payable": false,
      "stateMutability": "view",
      "type": "function",
      "signature": "0x8da5cb5b"
    },
    {
      "constant": true,
      "inputs": [
        {
          "name": "",
          "type": "int64"
        }
      ],
      "name": "hashChain",
      "outputs": [
        {
          "name": "",
          "type": "bytes32"
        }
      ],
      "payable": false,
      "stateMutability": "view",
      "type": "function",
      "signature": "0x92f8e5af"
    },
    {
      "inputs": [],
      "payable": false,
      "stateMutability": "nonpayable",
      "type": "constructor",
      "signature": "constructor"
    },
    {
      "payable": false,
      "stateMutability": "nonpayable",
      "type": "fallback"
    },
    {
      "anonymous": false,
      "inputs": [
        {
          "indexed": true,
          "name": "key",
          "type": "int64"
        },
        {
          "indexed": true,
          "name": "hash",
          "type": "bytes32"
        }
      ],
      "name": "newHashRecorded",
      "type": "event",
      "signature": "0x8b1c5f6a186a64ce53e84c1cc6cf8d3bb2b663fb453831c8c811ff3640aae3eb"
    },
    {
      "anonymous": false,
      "inputs": [
        {
          "indexed": true,
          "name": "accountAddress",
          "type": "address"
        }
      ],
      "name": "authorizationGranted",
      "type": "event",
      "signature": "0x7d75ea9f22dff4328ed01edb890aca5758719cb05eb9a72be5e12ab4c660fc38"
    },
    {
      "constant": false,
      "inputs": [
        {
          "name": "user",
          "type": "address"
        }
      ],
      "name": "authorize",
      "outputs": [],
      "payable": false,
      "stateMutability": "nonpayable",
      "type": "function",
      "signature": "0xb6a5d7de"
    },
    {
      "constant": true,
      "inputs": [
        {
          "name": "user",
          "type": "address"
        }
      ],
      "name": "isAuthorized",
      "outputs": [
        {
          "name": "authorized",
          "type": "bool"
        }
      ],
      "payable": false,
      "stateMutability": "view",
      "type": "function",
      "signature": "0xfe9fbb80"
    },
    {
      "constant": false,
      "inputs": [
        {
          "name": "date",
          "type": "int64"
        },
        {
          "name": "hash",
          "type": "bytes32"
        }
      ],
      "name": "record",
      "outputs": [],
      "payable": false,
      "stateMutability": "nonpayable",
      "type": "function",
      "signature": "0x5acf1cc8"
    },
    {
      "constant": true,
      "inputs": [
        {
          "name": "date",
          "type": "int64"
        }
      ],
      "name": "getHash",
      "outputs": [
        {
          "name": "",
          "type": "bytes32"
        }
      ],
      "payable": false,
      "stateMutability": "view",
      "type": "function",
      "signature": "0x4251e4f2"
    }
  ],
  "bytecode": "0x608060405234801561001057600080fd5b5033600160006101000a81548173ffffffffffffffffffffffffffffffffffffffff021916908373ffffffffffffffffffffffffffffffffffffffff1602179055506001600080600160009054906101000a900473ffffffffffffffffffffffffffffffffffffffff1673ffffffffffffffffffffffffffffffffffffffff1673ffffffffffffffffffffffffffffffffffffffff16815260200190815260200160002060006101000a81548160ff021916908315150217905550610633806100da6000396000f3fe608060405260043610610083576000357c0100000000000000000000000000000000000000000000000000000000900463ffffffff1680634251e4f2146100925780635acf1cc8146100e45780636f3249671461012c5780638da5cb5b1461019557806392f8e5af146101ec578063b6a5d7de1461023e578063fe9fbb801461028f575b34801561008f57600080fd5b50005b34801561009e57600080fd5b506100ce600480360360208110156100b557600080fd5b81019080803560070b90602001909291905050506102f8565b6040518082815260200191505060405180910390f35b3480156100f057600080fd5b5061012a6004803603604081101561010757600080fd5b81019080803560070b90602001909291908035906020019092919050505061031b565b005b34801561013857600080fd5b5061017b6004803603602081101561014f57600080fd5b81019080803573ffffffffffffffffffffffffffffffffffffffff1690602001909291905050506103cc565b604051808215151515815260200191505060405180910390f35b3480156101a157600080fd5b506101aa6103ec565b604051808273ffffffffffffffffffffffffffffffffffffffff1673ffffffffffffffffffffffffffffffffffffffff16815260200191505060405180910390f35b3480156101f857600080fd5b506102286004803603602081101561020f57600080fd5b81019080803560070b9060200190929190505050610412565b6040518082815260200191505060405180910390f35b34801561024a57600080fd5b5061028d6004803603602081101561026157600080fd5b81019080803573ffffffffffffffffffffffffffffffffffffffff16906020019092919050505061042a565b005b34801561029b57600080fd5b506102de600480360360208110156102b257600080fd5b81019080803573ffffffffffffffffffffffffffffffffffffffff1690602001909291905050506105b2565b604051808215151515815260200191505060405180910390f35b6000600260008360070b60070b8152602001908152602001600020549050919050565b600115156000803373ffffffffffffffffffffffffffffffffffffffff1673ffffffffffffffffffffffffffffffffffffffff16815260200190815260200160002060009054906101000a900460ff16151514151561037957600080fd5b80600260008460070b60070b815260200190815260200160002081905550808260070b7f8b1c5f6a186a64ce53e84c1cc6cf8d3bb2b663fb453831c8c811ff3640aae3eb60405160405180910390a35050565b60006020528060005260406000206000915054906101000a900460ff1681565b600160009054906101000a900473ffffffffffffffffffffffffffffffffffffffff1681565b60026020528060005260406000206000915090505481565b600160009054906101000a900473ffffffffffffffffffffffffffffffffffffffff1673ffffffffffffffffffffffffffffffffffffffff163373ffffffffffffffffffffffffffffffffffffffff16141515610515576040517f08c379a000000000000000000000000000000000000000000000000000000000815260040180806020018281038252602b8152602001807f4f6e6c792074686520636f6e7472616374206f776e65722063616e206175746881526020017f6f72697a6520757365727300000000000000000000000000000000000000000081525060400191505060405180910390fd5b60016000808373ffffffffffffffffffffffffffffffffffffffff1673ffffffffffffffffffffffffffffffffffffffff16815260200190815260200160002060006101000a81548160ff0219169083151502179055508073ffffffffffffffffffffffffffffffffffffffff167f7d75ea9f22dff4328ed01edb890aca5758719cb05eb9a72be5e12ab4c660fc3860405160405180910390a250565b60008060008373ffffffffffffffffffffffffffffffffffffffff1673ffffffffffffffffffffffffffffffffffffffff16815260200190815260200160002060009054906101000a900460ff16905091905056fea165627a7a72305820ece0820af49e6201411699745493049ded39005d1c9ebb04ae288f994ba6c5670029",
  "source": "pragma solidity ^0.5.0;\n\ncontract HelloWorld {\n\n    // define variables\n    mapping(address => bool)  public authorizedSenders;\n    address  public  owner;\n    mapping(int64 => bytes32)  public hashChain;\n\n\n    // define events\n    event newHashRecorded(int64 indexed key, bytes32 indexed hash);\n    event authorizationGranted(address indexed accountAddress);\n\n    // constructor\n    constructor() public {\n        owner = msg.sender;\n        authorizedSenders[owner] = true;\n    }\n\n\n    // functions\n    function() external {}\n\n    function authorize(address user) public {\n        require(msg.sender == owner, \"Only the contract owner can authorize users\");\n        authorizedSenders[user] = true;\n\n        emit authorizationGranted(user);\n    }\n\n    function isAuthorized(address user) external view returns (bool authorized){\n        return authorizedSenders[user];\n    }\n\n\n\n    function record(int64 date, bytes32 hash) external {\n        require(authorizedSenders[msg.sender] == true);\n        hashChain[date] = hash;\n\n        emit newHashRecorded(date, hash);\n    }\n    \n    function getHash(int64 date) external view returns (bytes32){\n        return hashChain[date];\n    }\n\n}",
  "sourcePath": "/home/seraphin/dev/Bootcamp_project/Solidity/SoapBox/contracts/HelloWorld.sol",
  "compiler": {
    "name": "solc",
    "version": "0.5.0+commit.1d4f565a.Emscripten.clang"
  },
  "schemaVersion": "3.0.3",
  "updatedAt": "2019-04-03T23:15:44.232Z",
  "devdoc": {
    "methods": {}
  },
  "userdoc": {
    "methods": {}
  }
}